{
  "contracts/CollateralVault.sol": {
    "CollateralVault": {
      "abi": [
        {
          "inputs": [
            {
              "internalType": "address",
              "name": "stableTokenCA",
              "type": "address"
            },
            {
              "internalType": "address",
              "name": "_ownerAddress",
              "type": "address"
            }
          ],
          "stateMutability": "nonpayable",
          "type": "constructor"
        },
        {
          "inputs": [
            {
              "internalType": "address",
              "name": "account",
              "type": "address"
            }
          ],
          "name": "HealthFactorStillSafe",
          "type": "error"
        },
        {
          "inputs": [],
          "name": "LoanManagerNotSet",
          "type": "error"
        },
        {
          "inputs": [
            {
              "internalType": "address",
              "name": "account",
              "type": "address"
            }
          ],
          "name": "Unauthorized",
          "type": "error"
        },
        {
          "anonymous": false,
          "inputs": [
            {
              "indexed": true,
              "internalType": "address",
              "name": "account",
              "type": "address"
            },
            {
              "indexed": false,
              "internalType": "uint256",
              "name": "amount",
              "type": "uint256"
            }
          ],
          "name": "Liquidation",
          "type": "event"
        },
        {
          "anonymous": false,
          "inputs": [
            {
              "indexed": true,
              "internalType": "address",
              "name": "account",
              "type": "address"
            },
            {
              "indexed": false,
              "internalType": "uint256",
              "name": "amount",
              "type": "uint256"
            }
          ],
          "name": "UserAddCollateral",
          "type": "event"
        },
        {
          "anonymous": false,
          "inputs": [
            {
              "indexed": true,
              "internalType": "address",
              "name": "account",
              "type": "address"
            },
            {
              "indexed": false,
              "internalType": "uint256",
              "name": "beforeWithdrawCollateralAmount",
              "type": "uint256"
            },
            {
              "indexed": false,
              "internalType": "uint256",
              "name": "withdrawAmount",
              "type": "uint256"
            }
          ],
          "name": "UserWithdrawCollateral",
          "type": "event"
        },
        {
          "inputs": [
            {
              "internalType": "address",
              "name": "user",
              "type": "address"
            },
            {
              "internalType": "uint256",
              "name": "_ether",
              "type": "uint256"
            }
          ],
          "name": "addUserCollateral",
          "outputs": [],
          "stateMutability": "payable",
          "type": "function"
        },
        {
          "inputs": [
            {
              "internalType": "address",
              "name": "user",
              "type": "address"
            },
            {
              "internalType": "uint256",
              "name": "_ether",
              "type": "uint256"
            }
          ],
          "name": "decreaseUserCollateral",
          "outputs": [],
          "stateMutability": "nonpayable",
          "type": "function"
        },
        {
          "inputs": [
            {
              "internalType": "uint256",
              "name": "ethAmount",
              "type": "uint256"
            }
          ],
          "name": "getETHtoUSD",
          "outputs": [
            {
              "internalType": "uint256",
              "name": "",
              "type": "uint256"
            }
          ],
          "stateMutability": "view",
          "type": "function"
        },
        {
          "inputs": [
            {
              "internalType": "address",
              "name": "userAddress",
              "type": "address"
            }
          ],
          "name": "getHealthFactor",
          "outputs": [
            {
              "internalType": "uint256",
              "name": "",
              "type": "uint256"
            }
          ],
          "stateMutability": "view",
          "type": "function"
        },
        {
          "inputs": [
            {
              "internalType": "address",
              "name": "userAddress",
              "type": "address"
            }
          ],
          "name": "liquidation",
          "outputs": [],
          "stateMutability": "nonpayable",
          "type": "function"
        },
        {
          "inputs": [],
          "name": "loanManager",
          "outputs": [
            {
              "internalType": "contract LoanManager",
              "name": "",
              "type": "address"
            }
          ],
          "stateMutability": "view",
          "type": "function"
        },
        {
          "inputs": [],
          "name": "loanManagerAddress",
          "outputs": [
            {
              "internalType": "address",
              "name": "",
              "type": "address"
            }
          ],
          "stateMutability": "view",
          "type": "function"
        },
        {
          "inputs": [],
          "name": "ownerAddress",
          "outputs": [
            {
              "internalType": "address",
              "name": "",
              "type": "address"
            }
          ],
          "stateMutability": "view",
          "type": "function"
        },
        {
          "inputs": [
            {
              "internalType": "address",
              "name": "_loanManager",
              "type": "address"
            }
          ],
          "name": "setLoanManager",
          "outputs": [],
          "stateMutability": "nonpayable",
          "type": "function"
        },
        {
          "inputs": [],
          "name": "stableToken",
          "outputs": [
            {
              "internalType": "contract StableToken",
              "name": "",
              "type": "address"
            }
          ],
          "stateMutability": "view",
          "type": "function"
        },
        {
          "inputs": [
            {
              "internalType": "address",
              "name": "",
              "type": "address"
            }
          ],
          "name": "userCollateral",
          "outputs": [
            {
              "internalType": "uint256",
              "name": "",
              "type": "uint256"
            }
          ],
          "stateMutability": "view",
          "type": "function"
        },
        {
          "inputs": [
            {
              "internalType": "address",
              "name": "user",
              "type": "address"
            },
            {
              "internalType": "uint256",
              "name": "_ether",
              "type": "uint256"
            }
          ],
          "name": "withdrawCollateral",
          "outputs": [],
          "stateMutability": "nonpayable",
          "type": "function"
        }
      ],
      "evm": {
        "bytecode": {
          "linkReferences": {},
          "object": "6080604052348015600f57600080fd5b50604051610abd380380610abd833981016040819052602c916096565b600080546001600160a01b031990811673694aa1769357215de4fac081bf1f309adc32530617909155600180546001600160a01b039485169083161790556003805492909316911617905560c4565b80516001600160a01b0381168114609157600080fd5b919050565b6000806040838503121560a857600080fd5b60af83607b565b915060bb60208401607b565b90509250929050565b6109ea806100d36000396000f3fe6080604052600436106100a75760003560e01c8063ad0de35811610064578063ad0de358146101b6578063b3ccbcfe146101c9578063b83e62bf146101e9578063ba86145d14610209578063f69f1e4a14610229578063fe6bcd7c1461025657600080fd5b806321ccf4bc146100ac578063350c35e9146100df57806340eefcbf146101015780635772ae70146101395780638f84aa0914610176578063a9d75b2b14610196575b600080fd5b3480156100b857600080fd5b506100cc6100c736600461083a565b610276565b6040519081526020015b60405180910390f35b3480156100eb57600080fd5b506100ff6100fa36600461086f565b610313565b005b34801561010d57600080fd5b50600454610121906001600160a01b031681565b6040516001600160a01b0390911681526020016100d6565b34801561014557600080fd5b506100ff610154366004610899565b600480546001600160a01b0319166001600160a01b0392909216919091179055565b34801561018257600080fd5b50600354610121906001600160a01b031681565b3480156101a257600080fd5b50600154610121906001600160a01b031681565b6100ff6101c436600461086f565b6104e3565b3480156101d557600080fd5b50600254610121906001600160a01b031681565b3480156101f557600080fd5b506100ff610204366004610899565b610552565b34801561021557600080fd5b506100ff61022436600461086f565b610653565b34801561023557600080fd5b506100cc610244366004610899565b60056020526000908152604090205481565b34801561026257600080fd5b506100cc610271366004610899565b610751565b6000805460408051633fabe5a360e21b8152905183926001600160a01b03169163feaf968c9160048083019260a09291908290030181865afa1580156102c0573d6000803e3d6000fd5b505050506040513d601f19601f820116820180604052508101906102e491906108ce565b5050509150506a52b7d2dcc80cd2e400000081846103029190610936565b61030c9190610953565b9392505050565b6000610320601e83610953565b61032a9083610975565b33600090815260056020526040808220546001600160a01b0387168352912054919250908311156103ca576040805162461bcd60e51b81526020600482015260248101919091527f436f6c6c61746572616c3a20496e73756666696369656e7420636f6c6c61746560448201527f72616c20746f20636f766572207769746864726177616c20616e64206665652e60648201526084015b60405180910390fd5b6001600160a01b038416600090815260056020526040812080548592906103f2908490610975565b90915550506040516000906001600160a01b0386169084908381818185875af1925050503d8060008114610442576040519150601f19603f3d011682016040523d82523d6000602084013e610447565b606091505b50509050806104985760405162461bcd60e51b815260206004820181905260248201527f436f6c6c61746572616c3a204661696c656420746f2073656e6420457468657260448201526064016103c1565b60408051838152602081018590526001600160a01b038716917fbb8b880b93d65fd2a0a00307416a28ee38cdb658d501241dffdfc32067cd9fc7910160405180910390a25050505050565b6001600160a01b0382166000908152600560205260408120805483929061050b908490610988565b90915550506040518181526001600160a01b038316907feaeb347713a9f9ce6c9b7b2c2f1b5bd47db0bf6e65b7579d7eaa25cc4d12fb109060200160405180910390a25050565b6004546001600160a01b031661057b576040516302e2db6760e21b815260040160405180910390fd5b6004546001600160a01b031633146105a85760405163472511eb60e11b81523360048201526024016103c1565b60006105b382610751565b9050670c7d713b49da000081106105e857604051635eab2e5160e11b81526001600160a01b03831660048201526024016103c1565b6001600160a01b03821660009081526005602052604090205461060b8382610653565b826001600160a01b03167f6dd29d11f8d1bcdbd79da21bf92895417dcc2f8886b3db11c8a4ce00b73de9d08260405161064691815260200190565b60405180910390a2505050565b6004546001600160a01b031661067c576040516302e2db6760e21b815260040160405180910390fd5b6004546001600160a01b031633146106a95760405163472511eb60e11b81523360048201526024016103c1565b6001600160a01b0382166000908152600560205260409020548111156107205760405162461bcd60e51b815260206004820152602660248201527f526566756e6420616d6f756e74206578636565647320616c6c6f7761626c65206044820152653634b6b4ba1760d11b60648201526084016103c1565b6001600160a01b03821660009081526005602052604081208054839290610748908490610975565b90915550505050565b6001546040516370a0823160e01b81526001600160a01b03838116600483015260009283929116906370a0823190602401602060405180830381865afa15801561079f573d6000803e3d6000fd5b505050506040513d601f19601f820116820180604052508101906107c3919061099b565b9050806000036107d7575060001992915050565b6001600160a01b0383166000908152600560205260408120546107f990610276565b9050600061080f670de0b6b3a764000084610953565b905060008161082684670de0b6b3a7640000610936565b6108309190610953565b9695505050505050565b60006020828403121561084c57600080fd5b5035919050565b80356001600160a01b038116811461086a57600080fd5b919050565b6000806040838503121561088257600080fd5b61088b83610853565b946020939093013593505050565b6000602082840312156108ab57600080fd5b61030c82610853565b805169ffffffffffffffffffff8116811461086a57600080fd5b600080600080600060a086880312156108e657600080fd5b6108ef866108b4565b60208701516040880151606089015192975090955093509150610914608087016108b4565b90509295509295909350565b634e487b7160e01b600052601160045260246000fd5b808202811582820484141761094d5761094d610920565b92915050565b60008261097057634e487b7160e01b600052601260045260246000fd5b500490565b8181038181111561094d5761094d610920565b8082018082111561094d5761094d610920565b6000602082840312156109ad57600080fd5b505191905056fea26469706673582212201b28c0d32a4ee3b4034283df29bdfe53e7465e9d45fca56d0fbc462395e9adc064736f6c634300081c0033",
          "opcodes": "PUSH1 0x80 PUSH1 0x40 MSTORE CALLVALUE DUP1 ISZERO PUSH1 0xF JUMPI PUSH1 0x0 DUP1 REVERT JUMPDEST POP PUSH1 0x40 MLOAD PUSH2 0xABD CODESIZE SUB DUP1 PUSH2 0xABD DUP4 CODECOPY DUP2 ADD PUSH1 0x40 DUP2 SWAP1 MSTORE PUSH1 0x2C SWAP2 PUSH1 0x96 JUMP JUMPDEST PUSH1 0x0 DUP1 SLOAD PUSH1 0x1 PUSH1 0x1 PUSH1 0xA0 SHL SUB NOT SWAP1 DUP2 AND PUSH20 0x694AA1769357215DE4FAC081BF1F309ADC325306 OR SWAP1 SWAP2 SSTORE PUSH1 0x1 DUP1 SLOAD PUSH1 0x1 PUSH1 0x1 PUSH1 0xA0 SHL SUB SWAP5 DUP6 AND SWAP1 DUP4 AND OR SWAP1 SSTORE PUSH1 0x3 DUP1 SLOAD SWAP3 SWAP1 SWAP4 AND SWAP2 AND OR SWAP1 SSTORE PUSH1 0xC4 JUMP JUMPDEST DUP1 MLOAD PUSH1 0x1 PUSH1 0x1 PUSH1 0xA0 SHL SUB DUP2 AND DUP2 EQ PUSH1 0x91 JUMPI PUSH1 0x0 DUP1 REVERT JUMPDEST SWAP2 SWAP1 POP JUMP JUMPDEST PUSH1 0x0 DUP1 PUSH1 0x40 DUP4 DUP6 SUB SLT ISZERO PUSH1 0xA8 JUMPI PUSH1 0x0 DUP1 REVERT JUMPDEST PUSH1 0xAF DUP4 PUSH1 0x7B JUMP JUMPDEST SWAP2 POP PUSH1 0xBB PUSH1 0x20 DUP5 ADD PUSH1 0x7B JUMP JUMPDEST SWAP1 POP SWAP3 POP SWAP3 SWAP1 POP JUMP JUMPDEST PUSH2 0x9EA DUP1 PUSH2 0xD3 PUSH1 0x0 CODECOPY PUSH1 0x0 RETURN INVALID PUSH1 0x80 PUSH1 0x40 MSTORE PUSH1 0x4 CALLDATASIZE LT PUSH2 0xA7 JUMPI PUSH1 0x0 CALLDATALOAD PUSH1 0xE0 SHR DUP1 PUSH4 0xAD0DE358 GT PUSH2 0x64 JUMPI DUP1 PUSH4 0xAD0DE358 EQ PUSH2 0x1B6 JUMPI DUP1 PUSH4 0xB3CCBCFE EQ PUSH2 0x1C9 JUMPI DUP1 PUSH4 0xB83E62BF EQ PUSH2 0x1E9 JUMPI DUP1 PUSH4 0xBA86145D EQ PUSH2 0x209 JUMPI DUP1 PUSH4 0xF69F1E4A EQ PUSH2 0x229 JUMPI DUP1 PUSH4 0xFE6BCD7C EQ PUSH2 0x256 JUMPI PUSH1 0x0 DUP1 REVERT JUMPDEST DUP1 PUSH4 0x21CCF4BC EQ PUSH2 0xAC JUMPI DUP1 PUSH4 0x350C35E9 EQ PUSH2 0xDF JUMPI DUP1 PUSH4 0x40EEFCBF EQ PUSH2 0x101 JUMPI DUP1 PUSH4 0x5772AE70 EQ PUSH2 0x139 JUMPI DUP1 PUSH4 0x8F84AA09 EQ PUSH2 0x176 JUMPI DUP1 PUSH4 0xA9D75B2B EQ PUSH2 0x196 JUMPI JUMPDEST PUSH1 0x0 DUP1 REVERT JUMPDEST CALLVALUE DUP1 ISZERO PUSH2 0xB8 JUMPI PUSH1 0x0 DUP1 REVERT JUMPDEST POP PUSH2 0xCC PUSH2 0xC7 CALLDATASIZE PUSH1 0x4 PUSH2 0x83A JUMP JUMPDEST PUSH2 0x276 JUMP JUMPDEST PUSH1 0x40 MLOAD SWAP1 DUP2 MSTORE PUSH1 0x20 ADD JUMPDEST PUSH1 0x40 MLOAD DUP1 SWAP2 SUB SWAP1 RETURN JUMPDEST CALLVALUE DUP1 ISZERO PUSH2 0xEB JUMPI PUSH1 0x0 DUP1 REVERT JUMPDEST POP PUSH2 0xFF PUSH2 0xFA CALLDATASIZE PUSH1 0x4 PUSH2 0x86F JUMP JUMPDEST PUSH2 0x313 JUMP JUMPDEST STOP JUMPDEST CALLVALUE DUP1 ISZERO PUSH2 0x10D JUMPI PUSH1 0x0 DUP1 REVERT JUMPDEST POP PUSH1 0x4 SLOAD PUSH2 0x121 SWAP1 PUSH1 0x1 PUSH1 0x1 PUSH1 0xA0 SHL SUB AND DUP2 JUMP JUMPDEST PUSH1 0x40 MLOAD PUSH1 0x1 PUSH1 0x1 PUSH1 0xA0 SHL SUB SWAP1 SWAP2 AND DUP2 MSTORE PUSH1 0x20 ADD PUSH2 0xD6 JUMP JUMPDEST CALLVALUE DUP1 ISZERO PUSH2 0x145 JUMPI PUSH1 0x0 DUP1 REVERT JUMPDEST POP PUSH2 0xFF PUSH2 0x154 CALLDATASIZE PUSH1 0x4 PUSH2 0x899 JUMP JUMPDEST PUSH1 0x4 DUP1 SLOAD PUSH1 0x1 PUSH1 0x1 PUSH1 0xA0 SHL SUB NOT AND PUSH1 0x1 PUSH1 0x1 PUSH1 0xA0 SHL SUB SWAP3 SWAP1 SWAP3 AND SWAP2 SWAP1 SWAP2 OR SWAP1 SSTORE JUMP JUMPDEST CALLVALUE DUP1 ISZERO PUSH2 0x182 JUMPI PUSH1 0x0 DUP1 REVERT JUMPDEST POP PUSH1 0x3 SLOAD PUSH2 0x121 SWAP1 PUSH1 0x1 PUSH1 0x1 PUSH1 0xA0 SHL SUB AND DUP2 JUMP JUMPDEST CALLVALUE DUP1 ISZERO PUSH2 0x1A2 JUMPI PUSH1 0x0 DUP1 REVERT JUMPDEST POP PUSH1 0x1 SLOAD PUSH2 0x121 SWAP1 PUSH1 0x1 PUSH1 0x1 PUSH1 0xA0 SHL SUB AND DUP2 JUMP JUMPDEST PUSH2 0xFF PUSH2 0x1C4 CALLDATASIZE PUSH1 0x4 PUSH2 0x86F JUMP JUMPDEST PUSH2 0x4E3 JUMP JUMPDEST CALLVALUE DUP1 ISZERO PUSH2 0x1D5 JUMPI PUSH1 0x0 DUP1 REVERT JUMPDEST POP PUSH1 0x2 SLOAD PUSH2 0x121 SWAP1 PUSH1 0x1 PUSH1 0x1 PUSH1 0xA0 SHL SUB AND DUP2 JUMP JUMPDEST CALLVALUE DUP1 ISZERO PUSH2 0x1F5 JUMPI PUSH1 0x0 DUP1 REVERT JUMPDEST POP PUSH2 0xFF PUSH2 0x204 CALLDATASIZE PUSH1 0x4 PUSH2 0x899 JUMP JUMPDEST PUSH2 0x552 JUMP JUMPDEST CALLVALUE DUP1 ISZERO PUSH2 0x215 JUMPI PUSH1 0x0 DUP1 REVERT JUMPDEST POP PUSH2 0xFF PUSH2 0x224 CALLDATASIZE PUSH1 0x4 PUSH2 0x86F JUMP JUMPDEST PUSH2 0x653 JUMP JUMPDEST CALLVALUE DUP1 ISZERO PUSH2 0x235 JUMPI PUSH1 0x0 DUP1 REVERT JUMPDEST POP PUSH2 0xCC PUSH2 0x244 CALLDATASIZE PUSH1 0x4 PUSH2 0x899 JUMP JUMPDEST PUSH1 0x5 PUSH1 0x20 MSTORE PUSH1 0x0 SWAP1 DUP2 MSTORE PUSH1 0x40 SWAP1 KECCAK256 SLOAD DUP2 JUMP JUMPDEST CALLVALUE DUP1 ISZERO PUSH2 0x262 JUMPI PUSH1 0x0 DUP1 REVERT JUMPDEST POP PUSH2 0xCC PUSH2 0x271 CALLDATASIZE PUSH1 0x4 PUSH2 0x899 JUMP JUMPDEST PUSH2 0x751 JUMP JUMPDEST PUSH1 0x0 DUP1 SLOAD PUSH1 0x40 DUP1 MLOAD PUSH4 0x3FABE5A3 PUSH1 0xE2 SHL DUP2 MSTORE SWAP1 MLOAD DUP4 SWAP3 PUSH1 0x1 PUSH1 0x1 PUSH1 0xA0 SHL SUB AND SWAP2 PUSH4 0xFEAF968C SWAP2 PUSH1 0x4 DUP1 DUP4 ADD SWAP3 PUSH1 0xA0 SWAP3 SWAP2 SWAP1 DUP3 SWAP1 SUB ADD DUP2 DUP7 GAS STATICCALL ISZERO DUP1 ISZERO PUSH2 0x2C0 JUMPI RETURNDATASIZE PUSH1 0x0 DUP1 RETURNDATACOPY RETURNDATASIZE PUSH1 0x0 REVERT JUMPDEST POP POP POP POP PUSH1 0x40 MLOAD RETURNDATASIZE PUSH1 0x1F NOT PUSH1 0x1F DUP3 ADD AND DUP3 ADD DUP1 PUSH1 0x40 MSTORE POP DUP2 ADD SWAP1 PUSH2 0x2E4 SWAP2 SWAP1 PUSH2 0x8CE JUMP JUMPDEST POP POP POP SWAP2 POP POP PUSH11 0x52B7D2DCC80CD2E4000000 DUP2 DUP5 PUSH2 0x302 SWAP2 SWAP1 PUSH2 0x936 JUMP JUMPDEST PUSH2 0x30C SWAP2 SWAP1 PUSH2 0x953 JUMP JUMPDEST SWAP4 SWAP3 POP POP POP JUMP JUMPDEST PUSH1 0x0 PUSH2 0x320 PUSH1 0x1E DUP4 PUSH2 0x953 JUMP JUMPDEST PUSH2 0x32A SWAP1 DUP4 PUSH2 0x975 JUMP JUMPDEST CALLER PUSH1 0x0 SWAP1 DUP2 MSTORE PUSH1 0x5 PUSH1 0x20 MSTORE PUSH1 0x40 DUP1 DUP3 KECCAK256 SLOAD PUSH1 0x1 PUSH1 0x1 PUSH1 0xA0 SHL SUB DUP8 AND DUP4 MSTORE SWAP2 KECCAK256 SLOAD SWAP2 SWAP3 POP SWAP1 DUP4 GT ISZERO PUSH2 0x3CA JUMPI PUSH1 0x40 DUP1 MLOAD PUSH3 0x461BCD PUSH1 0xE5 SHL DUP2 MSTORE PUSH1 0x20 PUSH1 0x4 DUP3 ADD MSTORE PUSH1 0x24 DUP2 ADD SWAP2 SWAP1 SWAP2 MSTORE PUSH32 0x436F6C6C61746572616C3A20496E73756666696369656E7420636F6C6C617465 PUSH1 0x44 DUP3 ADD MSTORE PUSH32 0x72616C20746F20636F766572207769746864726177616C20616E64206665652E PUSH1 0x64 DUP3 ADD MSTORE PUSH1 0x84 ADD JUMPDEST PUSH1 0x40 MLOAD DUP1 SWAP2 SUB SWAP1 REVERT JUMPDEST PUSH1 0x1 PUSH1 0x1 PUSH1 0xA0 SHL SUB DUP5 AND PUSH1 0x0 SWAP1 DUP2 MSTORE PUSH1 0x5 PUSH1 0x20 MSTORE PUSH1 0x40 DUP2 KECCAK256 DUP1 SLOAD DUP6 SWAP3 SWAP1 PUSH2 0x3F2 SWAP1 DUP5 SWAP1 PUSH2 0x975 JUMP JUMPDEST SWAP1 SWAP2 SSTORE POP POP PUSH1 0x40 MLOAD PUSH1 0x0 SWAP1 PUSH1 0x1 PUSH1 0x1 PUSH1 0xA0 SHL SUB DUP7 AND SWAP1 DUP5 SWAP1 DUP4 DUP2 DUP2 DUP2 DUP6 DUP8 GAS CALL SWAP3 POP POP POP RETURNDATASIZE DUP1 PUSH1 0x0 DUP2 EQ PUSH2 0x442 JUMPI PUSH1 0x40 MLOAD SWAP2 POP PUSH1 0x1F NOT PUSH1 0x3F RETURNDATASIZE ADD AND DUP3 ADD PUSH1 0x40 MSTORE RETURNDATASIZE DUP3 MSTORE RETURNDATASIZE PUSH1 0x0 PUSH1 0x20 DUP5 ADD RETURNDATACOPY PUSH2 0x447 JUMP JUMPDEST PUSH1 0x60 SWAP2 POP JUMPDEST POP POP SWAP1 POP DUP1 PUSH2 0x498 JUMPI PUSH1 0x40 MLOAD PUSH3 0x461BCD PUSH1 0xE5 SHL DUP2 MSTORE PUSH1 0x20 PUSH1 0x4 DUP3 ADD DUP2 SWAP1 MSTORE PUSH1 0x24 DUP3 ADD MSTORE PUSH32 0x436F6C6C61746572616C3A204661696C656420746F2073656E64204574686572 PUSH1 0x44 DUP3 ADD MSTORE PUSH1 0x64 ADD PUSH2 0x3C1 JUMP JUMPDEST PUSH1 0x40 DUP1 MLOAD DUP4 DUP2 MSTORE PUSH1 0x20 DUP2 ADD DUP6 SWAP1 MSTORE PUSH1 0x1 PUSH1 0x1 PUSH1 0xA0 SHL SUB DUP8 AND SWAP2 PUSH32 0xBB8B880B93D65FD2A0A00307416A28EE38CDB658D501241DFFDFC32067CD9FC7 SWAP2 ADD PUSH1 0x40 MLOAD DUP1 SWAP2 SUB SWAP1 LOG2 POP POP POP POP POP JUMP JUMPDEST PUSH1 0x1 PUSH1 0x1 PUSH1 0xA0 SHL SUB DUP3 AND PUSH1 0x0 SWAP1 DUP2 MSTORE PUSH1 0x5 PUSH1 0x20 MSTORE PUSH1 0x40 DUP2 KECCAK256 DUP1 SLOAD DUP4 SWAP3 SWAP1 PUSH2 0x50B SWAP1 DUP5 SWAP1 PUSH2 0x988 JUMP JUMPDEST SWAP1 SWAP2 SSTORE POP POP PUSH1 0x40 MLOAD DUP2 DUP2 MSTORE PUSH1 0x1 PUSH1 0x1 PUSH1 0xA0 SHL SUB DUP4 AND SWAP1 PUSH32 0xEAEB347713A9F9CE6C9B7B2C2F1B5BD47DB0BF6E65B7579D7EAA25CC4D12FB10 SWAP1 PUSH1 0x20 ADD PUSH1 0x40 MLOAD DUP1 SWAP2 SUB SWAP1 LOG2 POP POP JUMP JUMPDEST PUSH1 0x4 SLOAD PUSH1 0x1 PUSH1 0x1 PUSH1 0xA0 SHL SUB AND PUSH2 0x57B JUMPI PUSH1 0x40 MLOAD PUSH4 0x2E2DB67 PUSH1 0xE2 SHL DUP2 MSTORE PUSH1 0x4 ADD PUSH1 0x40 MLOAD DUP1 SWAP2 SUB SWAP1 REVERT JUMPDEST PUSH1 0x4 SLOAD PUSH1 0x1 PUSH1 0x1 PUSH1 0xA0 SHL SUB AND CALLER EQ PUSH2 0x5A8 JUMPI PUSH1 0x40 MLOAD PUSH4 0x472511EB PUSH1 0xE1 SHL DUP2 MSTORE CALLER PUSH1 0x4 DUP3 ADD MSTORE PUSH1 0x24 ADD PUSH2 0x3C1 JUMP JUMPDEST PUSH1 0x0 PUSH2 0x5B3 DUP3 PUSH2 0x751 JUMP JUMPDEST SWAP1 POP PUSH8 0xC7D713B49DA0000 DUP2 LT PUSH2 0x5E8 JUMPI PUSH1 0x40 MLOAD PUSH4 0x5EAB2E51 PUSH1 0xE1 SHL DUP2 MSTORE PUSH1 0x1 PUSH1 0x1 PUSH1 0xA0 SHL SUB DUP4 AND PUSH1 0x4 DUP3 ADD MSTORE PUSH1 0x24 ADD PUSH2 0x3C1 JUMP JUMPDEST PUSH1 0x1 PUSH1 0x1 PUSH1 0xA0 SHL SUB DUP3 AND PUSH1 0x0 SWAP1 DUP2 MSTORE PUSH1 0x5 PUSH1 0x20 MSTORE PUSH1 0x40 SWAP1 KECCAK256 SLOAD PUSH2 0x60B DUP4 DUP3 PUSH2 0x653 JUMP JUMPDEST DUP3 PUSH1 0x1 PUSH1 0x1 PUSH1 0xA0 SHL SUB AND PUSH32 0x6DD29D11F8D1BCDBD79DA21BF92895417DCC2F8886B3DB11C8A4CE00B73DE9D0 DUP3 PUSH1 0x40 MLOAD PUSH2 0x646 SWAP2 DUP2 MSTORE PUSH1 0x20 ADD SWAP1 JUMP JUMPDEST PUSH1 0x40 MLOAD DUP1 SWAP2 SUB SWAP1 LOG2 POP POP POP JUMP JUMPDEST PUSH1 0x4 SLOAD PUSH1 0x1 PUSH1 0x1 PUSH1 0xA0 SHL SUB AND PUSH2 0x67C JUMPI PUSH1 0x40 MLOAD PUSH4 0x2E2DB67 PUSH1 0xE2 SHL DUP2 MSTORE PUSH1 0x4 ADD PUSH1 0x40 MLOAD DUP1 SWAP2 SUB SWAP1 REVERT JUMPDEST PUSH1 0x4 SLOAD PUSH1 0x1 PUSH1 0x1 PUSH1 0xA0 SHL SUB AND CALLER EQ PUSH2 0x6A9 JUMPI PUSH1 0x40 MLOAD PUSH4 0x472511EB PUSH1 0xE1 SHL DUP2 MSTORE CALLER PUSH1 0x4 DUP3 ADD MSTORE PUSH1 0x24 ADD PUSH2 0x3C1 JUMP JUMPDEST PUSH1 0x1 PUSH1 0x1 PUSH1 0xA0 SHL SUB DUP3 AND PUSH1 0x0 SWAP1 DUP2 MSTORE PUSH1 0x5 PUSH1 0x20 MSTORE PUSH1 0x40 SWAP1 KECCAK256 SLOAD DUP2 GT ISZERO PUSH2 0x720 JUMPI PUSH1 0x40 MLOAD PUSH3 0x461BCD PUSH1 0xE5 SHL DUP2 MSTORE PUSH1 0x20 PUSH1 0x4 DUP3 ADD MSTORE PUSH1 0x26 PUSH1 0x24 DUP3 ADD MSTORE PUSH32 0x526566756E6420616D6F756E74206578636565647320616C6C6F7761626C6520 PUSH1 0x44 DUP3 ADD MSTORE PUSH6 0x3634B6B4BA17 PUSH1 0xD1 SHL PUSH1 0x64 DUP3 ADD MSTORE PUSH1 0x84 ADD PUSH2 0x3C1 JUMP JUMPDEST PUSH1 0x1 PUSH1 0x1 PUSH1 0xA0 SHL SUB DUP3 AND PUSH1 0x0 SWAP1 DUP2 MSTORE PUSH1 0x5 PUSH1 0x20 MSTORE PUSH1 0x40 DUP2 KECCAK256 DUP1 SLOAD DUP4 SWAP3 SWAP1 PUSH2 0x748 SWAP1 DUP5 SWAP1 PUSH2 0x975 JUMP JUMPDEST SWAP1 SWAP2 SSTORE POP POP POP POP JUMP JUMPDEST PUSH1 0x1 SLOAD PUSH1 0x40 MLOAD PUSH4 0x70A08231 PUSH1 0xE0 SHL DUP2 MSTORE PUSH1 0x1 PUSH1 0x1 PUSH1 0xA0 SHL SUB DUP4 DUP2 AND PUSH1 0x4 DUP4 ADD MSTORE PUSH1 0x0 SWAP3 DUP4 SWAP3 SWAP2 AND SWAP1 PUSH4 0x70A08231 SWAP1 PUSH1 0x24 ADD PUSH1 0x20 PUSH1 0x40 MLOAD DUP1 DUP4 SUB DUP2 DUP7 GAS STATICCALL ISZERO DUP1 ISZERO PUSH2 0x79F JUMPI RETURNDATASIZE PUSH1 0x0 DUP1 RETURNDATACOPY RETURNDATASIZE PUSH1 0x0 REVERT JUMPDEST POP POP POP POP PUSH1 0x40 MLOAD RETURNDATASIZE PUSH1 0x1F NOT PUSH1 0x1F DUP3 ADD AND DUP3 ADD DUP1 PUSH1 0x40 MSTORE POP DUP2 ADD SWAP1 PUSH2 0x7C3 SWAP2 SWAP1 PUSH2 0x99B JUMP JUMPDEST SWAP1 POP DUP1 PUSH1 0x0 SUB PUSH2 0x7D7 JUMPI POP PUSH1 0x0 NOT SWAP3 SWAP2 POP POP JUMP JUMPDEST PUSH1 0x1 PUSH1 0x1 PUSH1 0xA0 SHL SUB DUP4 AND PUSH1 0x0 SWAP1 DUP2 MSTORE PUSH1 0x5 PUSH1 0x20 MSTORE PUSH1 0x40 DUP2 KECCAK256 SLOAD PUSH2 0x7F9 SWAP1 PUSH2 0x276 JUMP JUMPDEST SWAP1 POP PUSH1 0x0 PUSH2 0x80F PUSH8 0xDE0B6B3A7640000 DUP5 PUSH2 0x953 JUMP JUMPDEST SWAP1 POP PUSH1 0x0 DUP2 PUSH2 0x826 DUP5 PUSH8 0xDE0B6B3A7640000 PUSH2 0x936 JUMP JUMPDEST PUSH2 0x830 SWAP2 SWAP1 PUSH2 0x953 JUMP JUMPDEST SWAP7 SWAP6 POP POP POP POP POP POP JUMP JUMPDEST PUSH1 0x0 PUSH1 0x20 DUP3 DUP5 SUB SLT ISZERO PUSH2 0x84C JUMPI PUSH1 0x0 DUP1 REVERT JUMPDEST POP CALLDATALOAD SWAP2 SWAP1 POP JUMP JUMPDEST DUP1 CALLDATALOAD PUSH1 0x1 PUSH1 0x1 PUSH1 0xA0 SHL SUB DUP2 AND DUP2 EQ PUSH2 0x86A JUMPI PUSH1 0x0 DUP1 REVERT JUMPDEST SWAP2 SWAP1 POP JUMP JUMPDEST PUSH1 0x0 DUP1 PUSH1 0x40 DUP4 DUP6 SUB SLT ISZERO PUSH2 0x882 JUMPI PUSH1 0x0 DUP1 REVERT JUMPDEST PUSH2 0x88B DUP4 PUSH2 0x853 JUMP JUMPDEST SWAP5 PUSH1 0x20 SWAP4 SWAP1 SWAP4 ADD CALLDATALOAD SWAP4 POP POP POP JUMP JUMPDEST PUSH1 0x0 PUSH1 0x20 DUP3 DUP5 SUB SLT ISZERO PUSH2 0x8AB JUMPI PUSH1 0x0 DUP1 REVERT JUMPDEST PUSH2 0x30C DUP3 PUSH2 0x853 JUMP JUMPDEST DUP1 MLOAD PUSH10 0xFFFFFFFFFFFFFFFFFFFF DUP2 AND DUP2 EQ PUSH2 0x86A JUMPI PUSH1 0x0 DUP1 REVERT JUMPDEST PUSH1 0x0 DUP1 PUSH1 0x0 DUP1 PUSH1 0x0 PUSH1 0xA0 DUP7 DUP9 SUB SLT ISZERO PUSH2 0x8E6 JUMPI PUSH1 0x0 DUP1 REVERT JUMPDEST PUSH2 0x8EF DUP7 PUSH2 0x8B4 JUMP JUMPDEST PUSH1 0x20 DUP8 ADD MLOAD PUSH1 0x40 DUP9 ADD MLOAD PUSH1 0x60 DUP10 ADD MLOAD SWAP3 SWAP8 POP SWAP1 SWAP6 POP SWAP4 POP SWAP2 POP PUSH2 0x914 PUSH1 0x80 DUP8 ADD PUSH2 0x8B4 JUMP JUMPDEST SWAP1 POP SWAP3 SWAP6 POP SWAP3 SWAP6 SWAP1 SWAP4 POP JUMP JUMPDEST PUSH4 0x4E487B71 PUSH1 0xE0 SHL PUSH1 0x0 MSTORE PUSH1 0x11 PUSH1 0x4 MSTORE PUSH1 0x24 PUSH1 0x0 REVERT JUMPDEST DUP1 DUP3 MUL DUP2 ISZERO DUP3 DUP3 DIV DUP5 EQ OR PUSH2 0x94D JUMPI PUSH2 0x94D PUSH2 0x920 JUMP JUMPDEST SWAP3 SWAP2 POP POP JUMP JUMPDEST PUSH1 0x0 DUP3 PUSH2 0x970 JUMPI PUSH4 0x4E487B71 PUSH1 0xE0 SHL PUSH1 0x0 MSTORE PUSH1 0x12 PUSH1 0x4 MSTORE PUSH1 0x24 PUSH1 0x0 REVERT JUMPDEST POP DIV SWAP1 JUMP JUMPDEST DUP2 DUP2 SUB DUP2 DUP2 GT ISZERO PUSH2 0x94D JUMPI PUSH2 0x94D PUSH2 0x920 JUMP JUMPDEST DUP1 DUP3 ADD DUP1 DUP3 GT ISZERO PUSH2 0x94D JUMPI PUSH2 0x94D PUSH2 0x920 JUMP JUMPDEST PUSH1 0x0 PUSH1 0x20 DUP3 DUP5 SUB SLT ISZERO PUSH2 0x9AD JUMPI PUSH1 0x0 DUP1 REVERT JUMPDEST POP MLOAD SWAP2 SWAP1 POP JUMP INVALID LOG2 PUSH5 0x6970667358 0x22 SLT KECCAK256 SHL 0x28 0xC0 0xD3 0x2A 0x4E 0xE3 0xB4 SUB TIMESTAMP DUP4 0xDF 0x29 0xBD INVALID MSTORE8 0xE7 CHAINID MCOPY SWAP14 GASLIMIT 0xFC 0xA5 PUSH14 0xFBC462395E9ADC064736F6C6343 STOP ADDMOD SHR STOP CALLER "
        },
        "methodIdentifiers": {
          "addUserCollateral(address,uint256)": "ad0de358",
          "decreaseUserCollateral(address,uint256)": "ba86145d",
          "getETHtoUSD(uint256)": "21ccf4bc",
          "getHealthFactor(address)": "fe6bcd7c",
          "liquidation(address)": "b83e62bf",
          "loanManager()": "b3ccbcfe",
          "loanManagerAddress()": "40eefcbf",
          "ownerAddress()": "8f84aa09",
          "setLoanManager(address)": "5772ae70",
          "stableToken()": "a9d75b2b",
          "userCollateral(address)": "f69f1e4a",
          "withdrawCollateral(address,uint256)": "350c35e9"
        }
      }
    }
  }
}